:020000040800F2
:100000007806002089010008DB030008830300084C
:10001000D9030008430200087F090008000000001F
:10002000000000000000000000000000650400085F
:100030004502000800000000DD0300083905000843
:10004000A3010008A3010008A3010008A301000800
:10005000A3010008A3010008A3010008A3010008F0
:10006000A3010008A3010008A3010008A3010008E0
:10007000A3010008A3010008A3010008A3010008D0
:10008000A3010008A3010008A3010008A3010008C0
:10009000A3010008A3010008A3010008A3010008B0
:1000A000A3010008A3010008A3010008A3010008A0
:1000B000A3010008A3010008A3010008A301000890
:1000C000A3010008A3010008A3010008A301000880
:1000D000A3010008A3010008A3010008A301000870
:1000E000A3010008A3010008A301000800F002F822
:1000F00000F03AF80AA090E8000C82448344AAF188
:100100000107DA4501D100F02FF8AFF2090EBAE885
:100110000F0013F0010F18BFFB1A43F0010318473B
:10012000980E0000B80E0000103A24BF78C878C1BD
:10013000FAD8520724BF30C830C144BF04680C60ED
:10014000704700000023002400250026103A28BF35
:1001500078C1FBD8520728BF30C148BF0B60704739
:100160001FB51FBD10B510BD00F031F81146FFF7E7
:10017000F7FF00F005FC00F04FF803B4FFF7F2FFC3
:1001800003BC00F057F800000948804709480047C1
:10019000FEE7FEE7FEE7FEE7FEE7FEE7FEE7FEE737
:1001A000FEE7FEE704480549054A064B7047000094
:1001B0003D050008ED0000087800002078060020CA
:1001C000780200207802002070477047704775461B
:1001D00000F02CF8AE4605006946534620F00700B3
:1001E000854618B020B5FFF7DDFFBDE820404FF091
:1001F00000064FF000074FF000084FF0000B21F011
:100200000701AC46ACE8C009ACE8C009ACE8C009DD
:10021000ACE8C0098D46704710B50446AFF30080C6
:100220002046BDE81040FFF7A8BF00000048704717
:100230001800002001491820ABBEFEE7260002008E
:100240007047FEE77047000010B56FF0040000F043
:1002500065F9094809490068B0FBF1F00849C0B2E6
:10026000087000EB4002C2EBC0104FF6FF7202EACA
:10027000C000488010BD00000000002000127A007D
:10028000140000200B49498848434FF0E0214861A1
:1002900000238B61086940F0010008610869C2070A
:1002A00001D0C003FAD5086920F0010008618B6114
:1002B000704700001400002070B5054600244FF47C
:1002C0007A7604E03046FFF7DDFF641CE4B2AC420E
:1002D000F8D370BD2DE9F0410022CC7804F00F0373
:1002E000E40601D58C7823430C784FF00F0714F007
:1002F000FF0F4FF0010C1CD005680CFA02F40E88B9
:100300002640A64211D1960007FA06F825EA08050C
:1003100003FA06F848EA0505CE78282E02D0482EC2
:1003200002D002E0446100E00461521C082AE4D3D8
:1003300005600A88FF2A1ED94568002202F10806D6
:100340000CFA06F40E882640A64210D1960007FA51
:1003500006F825EA080503FA06F848EA0505CE7806
:10036000282E00D14461CE78482E00D10461521C61
:10037000082AE3D34560BDE8F0814161704701611F
:100380007047FEE738B50121042000F029F8BC20B1
:10039000ADF8000010208DF8030003208DF8020056
:1003A0000C4C69462046FFF795FF10212046FFF7C9
:1003B000E6FF04212046FFF7E2FF08212046FFF771
:1003C000DEFF20212046FFF7DAFF80212046FFF7DD
:1003D000D6FF38BD00080140FEE7704770470000B7
:1003E000054A002903D091690143916170479169E1
:1003F00081439161704700000010024010210148C4
:10040000FFF7BDBF0008014070B50546114E202121
:100410003046FFF7B2FF002420213046FFF7ADFF42
:10042000280604D580213046FFF7A9FF03E080218C
:100430003046FFF7A2FF6806050E20213046FFF781
:100440009EFF20213046FFF798FF641CE4B2082C81
:10045000E2D370BD0008014010210148FFF78DBFB5
:1004600000080140704700F001B800000CB5002200
:10047000019200922748016841F4803101604FF4F5
:10048000A063016801F4003100910199491C0191B8
:10049000009911B901999942F3D10168890302D5F4
:1004A0000121009100E000920099012930D11A4900
:1004B0000A6842F010020A600A6822F003020A6029
:1004C0000A6842F002020A60416841604168416086
:1004D000416841F480614160416821F47C114160D0
:1004E000416841F4E8114160016841F080710160A8
:1004F00001688901FCD5416821F003014160416830
:1005000041F0020141604168C1F381010229FAD141
:100510000CBD000000100240002002404FF0E0211E
:10052000042804D0086920F00400086170470869B5
:1005300040F00400086170477047000010B50F4894
:10054000016841F00101016041680D4A11404160BC
:1005500001680C4A11400160016821F480210160AA
:10056000416821F4FE0141604FF41F018160FFF7F3
:100570007AFF05494FF00060086010BD001002408E
:100580000000FFF8FFFFF6FE08ED00E02DE9F04166
:100590000646EF2300211A46084600F0C7F9002559
:1005A000370A0024384600F0AFF9F0B200F0ACF999
:1005B000641CA4B2F02CF5D36D1CADB2F02DF0D3B9
:1005C000BDE8F0812DE9F0471F46203A02F0FF090F
:1005D00001F10F0293B2C21D92B200F0A7F90026FA
:1005E000DFF848A006EB09101AF80050002428068E
:1005F00006D5380A00F088F9F8B200F085F909E06C
:100600006FEA0708C8F3072000F07EF908F0FF0042
:1006100000F07AF96806050E641CE4B2082CE6D3F3
:10062000761CF6B2102EDDD3BDE8F087C8090008AD
:100630002DE9F04105460E4614461F4607E03B46AD
:1006400031462846FFF7BEFF0835ADB2641C22785C
:10065000002AF4D1BDE8F0812DE9F05F0546DDF810
:1006600028900E46501B87B2981B1FFA80F84FEA5D
:10067000192A474520D94FF0000B19E000240FE05C
:10068000301983B281B22A46284600F04FF950460D
:1006900000F03AF909F0FF0000F036F9641CA4B24A
:1006A0004445EDD36D1CADB20BF1010B1FFA8BFB72
:1006B000BB45E3D3BDE8F09F4FF0000B19E00024E9
:1006C0000FE0281982B280B23346314600F02EF98D
:1006D000504600F019F909F0FF0000F015F9641C0C
:1006E000A4B2BC42EDD3761CB6B20BF1010B1FFADB
:1006F0008BFBC345E3D3DDE770B5FFF743FE784CD2
:1007000004212046FFF739FE4FF47A752846FFF79B
:10071000B9FD04212046FFF732FE2846FFF7B2FD5F
:10072000112000F0DFF87820FFF7ACFD2A2000F060
:10073000D9F8002000F0E8F8002000F0E5F80020EB
:1007400000F0E2F8EF2000F0DFF82B2000F0CAF80C
:10075000002000F0D9F8282000F0D6F8012000F0A1
:10076000D3F8172000F0D0F8B22000F0BBF80C202E
:1007700000F0CAF80C2000F0C7F8002000F0C4F820
:10078000332000F0C1F8332000F0BEF8202000F044
:10079000A9F8B72000F0A6F8562000F0B5F8BB2065
:1007A00000F0A0F8182000F0AFF8C02000F09AF890
:1007B0002C2000F0A9F8C22000F094F8012000F0ED
:1007C000A3F8C32000F08EF81F2000F09DF8C4208D
:1007D00000F088F8202000F097F8C62000F082F89A
:1007E0000F2000F091F8D02000F07CF8A62000F057
:1007F0008BF8A12000F088F8E02000F073F8D020FA
:1008000000F082F80D2000F07FF8142000F07CF852
:100810000B2000F079F80B2000F076F8072000F0AC
:1008200073F83A2000F070F8442000F06DF8502082
:1008300000F06AF8082000F067F8132000F064F870
:10084000132000F061F82D2000F05EF8322000F057
:100850005BF8E12000F046F8D02000F055F80D20BC
:1008600000F052F8142000F04FF80B2000F04CF884
:100870000B2000F049F8072000F046F83A2000F07D
:1008800043F8442000F040F8502000F03DF80820E4
:1008900000F03AF8132000F037F8132000F034F895
:1008A0002D2000F031F8322000F02EF8362000F034
:1008B00019F8002000F028F83A2000F013F855202D
:1008C00000F022F8E72000F00DF8002000F01CF8FE
:1008D000212000F007F8BDE87040292000F002B8A0
:1008E0000008014010B5044608210648FFF745FD01
:1008F000FFF7B2FD2046FFF787FDBDE81040FFF788
:100900007DBD00000008014010B5044608210648DE
:10091000FFF735FDFFF7A0FD2046FFF775FDBDE8A9
:100920001040FFF76BBD0000000801402DE9F041C9
:1009300004460F4615461E462A20FFF7D3FF200A1D
:10094000FFF7E2FFE0B2FFF7DFFF280AFFF7DCFF67
:10095000E8B2FFF7D9FF2B20FFF7C4FF380AFFF7F3
:10096000D3FFF8B2FFF7D0FF300AFFF7CDFFF0B2A8
:10097000FFF7CAFFBDE8F0412C20FFF7B3BFFEE749
:1009800008B5FFF761FCFFF7B7FE4FF6FF70FFF702
:10099000FDFD4FF478440A21002309A20846FFF721
:1009A00047FE0120FFF788FC7823192250211420EC
:1009B0000094FFF751FE0120FFF77EFCEBE70000FB
:1009C000416263646566670000000000000000008B
:1009D000000000000000000000000018181818189F
:1009E0001808000818000000000000342424240027
:1009F00000000000000000000000000016247F241A
:100A000024247E2424000000000000083E6848687A
:100A10001C1612127C10100000000061D29674089F
:100A200010162949C6000000000000003C6464382C
:100A3000724ACE467F000000000000181818180007
:100A40000000000000000000000000040818103042
:100A50003030301010180C04000000201008080C72
:100A60000404040C08181020000000080A341C6A52
:100A7000080000000000000000000000000018183E
:100A8000187F181818000000000000000000000087
:100A900000000018180830000000000000000000EE
:100AA000003C00000000000000000000000000000A
:100AB00000000018180000000000000206040C08E6
:100AC0000810102020400000000000003C66424753
:100AD0005B7342663C000000000000001878480884
:100AE000080808087E000000000000003C460606DA
:100AF000040810207E000000000000007C060604B0
:100B00003C0202067C000000000000000C1C1424C3
:100B10006444FF0404000000000000007E60606088
:100B20007E0202067C000000000000001E306048CB
:100B3000764242623C000000000000007E02060493
:100B40000C08181030000000000000003C62423623
:100B50001C6642423C000000000000003C6642422D
:100B6000661A020478000000000000000000181857
:100B70000000001818000000000000000000181815
:100B800000000018180830000000000000000418E1
:100B90003060100C060000000000000000000000A3
:100BA0007E007E0000000000000000000000301801
:100BB00004060C1020000000000000301C06060691
:100BC00018100010100000000000001C224141DD40
:100BD000B5A5A5AF94C0403C00000000181C34240B
:100BE00026627E43C1000000000000007C464246B1
:100BF0007C4242427C000000000000001E20404079
:100C0000404040603E000000000000007C4642433F
:100C10004343424678000000000000007E606060B0
:100C20007E6060607E000000000000007E6060600A
:100C30007E60606060000000000000001E604040B8
:100C4000CE4242623E0000000000000042424242AA
:100C50007E42424242000000000000007E18181848
:100C6000181818187E000000000000007C0404041E
:100C7000040404447800000000000000424448508E
:100C800070584C444200000000000000202020204A
:100C9000202020203E000000000000006266675F08
:100CA0005B5BC1C1C10000000000000062627252C3
:100CB0005A4A4E4646000000000000003C6243C312
:100CC000C3C343623C000000000000007C46424277
:100CD0004678404040000000000000003C6243C3F2
:100CE000C3C343623C180F00000000007C666266CC
:100CF0007C6C646662000000000000003E604060A2
:100D00001C0602027C000000000000007F1818187A
:100D10001818181818000000000000004242424253
:100D2000424242623C00000000000000C1434262B7
:100D30002624341C1800000000000000C1C14149F5
:100D40005B5B7666660000000000000043663418B6
:100D5000181C2466C300000000000000C142663475
:100D60001C18181818000000000000007E02040C77
:100D7000181020607E0000000000001C10101010F1
:100D8000101010101010101C000000402020101037
:100D900008080C04060200000000003C0C0C0C0CBF
:100DA0000C0C0C0C0C0C0C3C00000000181C2462F9
:100DB0000000000000000000000000000000000033
:100DC00000000000000000FF0000002010000000F4
:100DD00000000000000000000000000000003C06D1
:100DE000023E42467A0000000000004040405C6243
:100DF000424242427C0000000000000000001E2031
:100E0000604060203E0000000000000202023E62DE
:100E1000424242663A0000000000000000003C62CE
:100E2000427E40603E0000000000000F1810107E5F
:100E300010101010100000000000000000003F66BD
:100E4000426658403E43423C0000004040405C62E5
:100E50004242424242000000000000181800780898
:100E6000080808087E000000000000040C007C0454
:100E70000404040404040C78000000606060626CE8
:100E800078706864620000000000007808080808B4
:100E9000080808087E000000000000000000764BF3
:100EA0004B4B4B4B4B0000000000000000005C620D
:100EB00042424242420000000000000000003C624A
:100EC000424342623C0000000000000000005C62FF
:100ED000424242427C4040400000000000003E622E
:100EE000424242663A0202020000000000006E72B6
:100EF00063606060600000000000000000003E20B1
:100F0000203C06027C000000000000001010FE10D3
:100F1000101010101E0000000000000000004242EF
:100F2000424242663A0000000000000000004342D6
:100F30006624341818000000000000000000C1C141
:100F40005B5A5E666600000000000000000062263A
:100F50001C181C2662000000000000000000434234
:100F60006624341C181830E00000000000007E06E3
:100F70000C1810207E0000000000000E1810101049
:100F8000307010101010180E00000808080808082B
:100F900008080808080808080000003018080808B1
:100FA0000C0E0808080818300000000000000000BF
:100FB000714B060000000000D80F00080000002060
:100FC0001800000028010008F00F00081800002099
:100FD000600600004401000800A24A04000000006E
:100FE00000000000010203040607080900000000D9
:04000005080000ED02
:00000001FF
